{
  "contractName": "PriceOracle",
  "abi": [
    {
      "inputs": [
        {
          "internalType": "address",
          "name": "_priceFeed",
          "type": "address"
        }
      ],
      "stateMutability": "nonpayable",
      "type": "constructor"
    },
    {
      "inputs": [
        {
          "internalType": "address",
          "name": "owner",
          "type": "address"
        }
      ],
      "name": "OwnableInvalidOwner",
      "type": "error"
    },
    {
      "inputs": [
        {
          "internalType": "address",
          "name": "account",
          "type": "address"
        }
      ],
      "name": "OwnableUnauthorizedAccount",
      "type": "error"
    },
    {
      "anonymous": false,
      "inputs": [
        {
          "indexed": true,
          "internalType": "address",
          "name": "previousOwner",
          "type": "address"
        },
        {
          "indexed": true,
          "internalType": "address",
          "name": "newOwner",
          "type": "address"
        }
      ],
      "name": "OwnershipTransferred",
      "type": "event"
    },
    {
      "anonymous": false,
      "inputs": [
        {
          "indexed": false,
          "internalType": "address",
          "name": "newPriceFeed",
          "type": "address"
        }
      ],
      "name": "PriceFeedUpdated",
      "type": "event"
    },
    {
      "anonymous": false,
      "inputs": [
        {
          "indexed": false,
          "internalType": "uint256",
          "name": "newMargin",
          "type": "uint256"
        }
      ],
      "name": "SafetyMarginUpdated",
      "type": "event"
    },
    {
      "inputs": [],
      "name": "PRICE_PRECISION",
      "outputs": [
        {
          "internalType": "uint256",
          "name": "",
          "type": "uint256"
        }
      ],
      "stateMutability": "view",
      "type": "function",
      "constant": true
    },
    {
      "inputs": [],
      "name": "owner",
      "outputs": [
        {
          "internalType": "address",
          "name": "",
          "type": "address"
        }
      ],
      "stateMutability": "view",
      "type": "function",
      "constant": true
    },
    {
      "inputs": [],
      "name": "renounceOwnership",
      "outputs": [],
      "stateMutability": "nonpayable",
      "type": "function"
    },
    {
      "inputs": [],
      "name": "safetyMargin",
      "outputs": [
        {
          "internalType": "uint256",
          "name": "",
          "type": "uint256"
        }
      ],
      "stateMutability": "view",
      "type": "function",
      "constant": true
    },
    {
      "inputs": [
        {
          "internalType": "address",
          "name": "newOwner",
          "type": "address"
        }
      ],
      "name": "transferOwnership",
      "outputs": [],
      "stateMutability": "nonpayable",
      "type": "function"
    },
    {
      "inputs": [],
      "name": "getEthUsdPrice",
      "outputs": [
        {
          "internalType": "uint256",
          "name": "",
          "type": "uint256"
        }
      ],
      "stateMutability": "view",
      "type": "function",
      "constant": true
    },
    {
      "inputs": [],
      "name": "getEthUsdPriceWithSafetyMargin",
      "outputs": [
        {
          "internalType": "uint256",
          "name": "",
          "type": "uint256"
        }
      ],
      "stateMutability": "view",
      "type": "function",
      "constant": true
    },
    {
      "inputs": [
        {
          "internalType": "address",
          "name": "_newPriceFeed",
          "type": "address"
        }
      ],
      "name": "updatePriceFeed",
      "outputs": [],
      "stateMutability": "nonpayable",
      "type": "function"
    },
    {
      "inputs": [
        {
          "internalType": "uint256",
          "name": "_newMargin",
          "type": "uint256"
        }
      ],
      "name": "updateSafetyMargin",
      "outputs": [],
      "stateMutability": "nonpayable",
      "type": "function"
    }
  ],
  "bytecode": "0x60806040526305f5e100600255348015610017575f80fd5b50604051610600380380610600833981016040819052610036916100d9565b338061005b57604051631e4fbdf760e01b81525f600482015260240160405180910390fd5b6100648161008a565b50600180546001600160a01b0319166001600160a01b0392909216919091179055610106565b5f80546001600160a01b038381166001600160a01b0319831681178455604051919092169283917f8be0079c531659141344cd1fd0a4f28419497f9722a3daafe3b4186f6b6457e09190a35050565b5f602082840312156100e9575f80fd5b81516001600160a01b03811681146100ff575f80fd5b9392505050565b6104ed806101135f395ff3fe608060405234801561000f575f80fd5b506004361061008e575f3560e01c80638da5cb5b116100635780638da5cb5b146100d357806395082d25146100ed57806395877f78146100f8578063a0a8045e1461010b578063f2fde38b14610113575f80fd5b806271257e1461009257806288189c146100a75780636a184ad2146100c2578063715018a6146100cb575b5f80fd5b6100a56100a03660046103c6565b610126565b005b6100af6101b6565b6040519081526020015b60405180910390f35b6100af60025481565b6100a56101e5565b5f546040516001600160a01b0390911681526020016100b9565b6100af6305f5e10081565b6100a56101063660046103dd565b6101f8565b6100af61024e565b6100a56101213660046103dd565b61030e565b61012e61034b565b5f811161017a5760405162461bcd60e51b815260206004820152601560248201527424b73b30b634b21039b0b332ba3c9036b0b933b4b760591b60448201526064015b60405180910390fd5b60028190556040518181527fb8f36f4adaa31070c67fcdaa1fa1d4154e2b85ab8d2380d29ff0458413f86a18906020015b60405180910390a150565b5f806101c061024e565b90506305f5e100600254826101d5919061040a565b6101df9190610433565b91505090565b6101ed61034b565b6101f65f610377565b565b61020061034b565b600180546001600160a01b0319166001600160a01b0383169081179091556040519081527fe5b20b8497e4f3e2435ef9c20e2e26b47497ee13745ce1c681ad6640653119e6906020016101ab565b5f8060015f9054906101000a90046001600160a01b03166001600160a01b031663feaf968c6040518163ffffffff1660e01b815260040160a060405180830381865afa1580156102a0573d5f803e3d5ffd5b505050506040513d601f19601f820116820180604052508101906102c4919061046b565b5050509150505f81136103095760405162461bcd60e51b815260206004820152600d60248201526c496e76616c696420707269636560981b6044820152606401610171565b919050565b61031661034b565b6001600160a01b03811661033f57604051631e4fbdf760e01b81525f6004820152602401610171565b61034881610377565b50565b5f546001600160a01b031633146101f65760405163118cdaa760e01b8152336004820152602401610171565b5f80546001600160a01b038381166001600160a01b0319831681178455604051919092169283917f8be0079c531659141344cd1fd0a4f28419497f9722a3daafe3b4186f6b6457e09190a35050565b5f602082840312156103d6575f80fd5b5035919050565b5f602082840312156103ed575f80fd5b81356001600160a01b0381168114610403575f80fd5b9392505050565b808202811582820484141761042d57634e487b7160e01b5f52601160045260245ffd5b92915050565b5f8261044d57634e487b7160e01b5f52601260045260245ffd5b500490565b805169ffffffffffffffffffff81168114610309575f80fd5b5f805f805f60a0868803121561047f575f80fd5b61048886610452565b94506020860151935060408601519250606086015191506104ab60808701610452565b9050929550929590935056fea26469706673582212209f9ffb16366950a3f3581e05cb7ce2905e859674e897b70de304a0cc050ee3d664736f6c63430008140033",
  "immutableReferences": {},
  "source": "// SPDX-License-Identifier: MIT\r\npragma solidity ^0.8.20;\r\n\r\nimport \"@chainlink/contracts/src/v0.8/shared/interfaces/AggregatorV3Interface.sol\";\r\nimport \"@openzeppelin/contracts/access/Ownable.sol\";\r\n\r\ncontract PriceOracle is Ownable {\r\n    AggregatorV3Interface internal ethUsdPriceFeed;\r\n    \r\n    uint256 public constant PRICE_PRECISION = 1e8;\r\n    uint256 public safetyMargin = 1e8; // 1.0 in 8 decimals precision\r\n\r\n    event PriceFeedUpdated(address newPriceFeed);\r\n    event SafetyMarginUpdated(uint256 newMargin);\r\n\r\n    constructor(address _priceFeed) Ownable(msg.sender) {\r\n        ethUsdPriceFeed = AggregatorV3Interface(_priceFeed);\r\n    }\r\n\r\n    function getEthUsdPrice() public view returns (uint256) {\r\n        (, int256 price,,,) = ethUsdPriceFeed.latestRoundData();\r\n        require(price > 0, \"Invalid price\");\r\n        return uint256(price);\r\n    }\r\n\r\n    function getEthUsdPriceWithSafetyMargin() external view returns (uint256) {\r\n        uint256 price = getEthUsdPrice();\r\n        return (price * safetyMargin) / PRICE_PRECISION;\r\n    }\r\n\r\n    function updatePriceFeed(address _newPriceFeed) external onlyOwner {\r\n        ethUsdPriceFeed = AggregatorV3Interface(_newPriceFeed);\r\n        emit PriceFeedUpdated(_newPriceFeed);\r\n    }\r\n\r\n    function updateSafetyMargin(uint256 _newMargin) external onlyOwner {\r\n        require(_newMargin > 0, \"Invalid safety margin\");\r\n        safetyMargin = _newMargin;\r\n        emit SafetyMarginUpdated(_newMargin);\r\n    }\r\n} ",
  "sourcePath": "D:\\solidity\\ZetaCoin\\contracts\\Oracle.sol",
  "compiler": {
    "name": "solc",
    "version": "0.8.20+commit.a1b79de6.Emscripten.clang"
  },
  "schemaVersion": "3.4.16",
  "updatedAt": "2025-04-20T14:50:59.564Z",
  "networkType": "ethereum",
  "devdoc": {
    "errors": {
      "OwnableInvalidOwner(address)": [
        {
          "details": "The owner is not a valid owner account. (eg. `address(0)`)"
        }
      ],
      "OwnableUnauthorizedAccount(address)": [
        {
          "details": "The caller account is not authorized to perform an operation."
        }
      ]
    },
    "kind": "dev",
    "methods": {
      "owner()": {
        "details": "Returns the address of the current owner."
      },
      "renounceOwnership()": {
        "details": "Leaves the contract without owner. It will not be possible to call `onlyOwner` functions. Can only be called by the current owner. NOTE: Renouncing ownership will leave the contract without an owner, thereby disabling any functionality that is only available to the owner."
      },
      "transferOwnership(address)": {
        "details": "Transfers ownership of the contract to a new account (`newOwner`). Can only be called by the current owner."
      }
    },
    "version": 1
  },
  "userdoc": {
    "kind": "user",
    "methods": {},
    "version": 1
  }
}