{
  "contractName": "Vault",
  "abi": [
    {
      "inputs": [
        {
          "internalType": "address",
          "name": "_zetaCoin",
          "type": "address"
        },
        {
          "internalType": "address",
          "name": "_oracle",
          "type": "address"
        }
      ],
      "stateMutability": "nonpayable",
      "type": "constructor"
    },
    {
      "inputs": [
        {
          "internalType": "address",
          "name": "owner",
          "type": "address"
        }
      ],
      "name": "OwnableInvalidOwner",
      "type": "error"
    },
    {
      "inputs": [
        {
          "internalType": "address",
          "name": "account",
          "type": "address"
        }
      ],
      "name": "OwnableUnauthorizedAccount",
      "type": "error"
    },
    {
      "inputs": [],
      "name": "ReentrancyGuardReentrantCall",
      "type": "error"
    },
    {
      "anonymous": false,
      "inputs": [
        {
          "indexed": true,
          "internalType": "address",
          "name": "owner",
          "type": "address"
        },
        {
          "indexed": false,
          "internalType": "uint256",
          "name": "amount",
          "type": "uint256"
        }
      ],
      "name": "CollateralAdded",
      "type": "event"
    },
    {
      "anonymous": false,
      "inputs": [
        {
          "indexed": true,
          "internalType": "address",
          "name": "owner",
          "type": "address"
        },
        {
          "indexed": false,
          "internalType": "uint256",
          "name": "amount",
          "type": "uint256"
        }
      ],
      "name": "CollateralRemoved",
      "type": "event"
    },
    {
      "anonymous": false,
      "inputs": [
        {
          "indexed": true,
          "internalType": "address",
          "name": "owner",
          "type": "address"
        },
        {
          "indexed": false,
          "internalType": "uint256",
          "name": "amount",
          "type": "uint256"
        }
      ],
      "name": "DebtRepaid",
      "type": "event"
    },
    {
      "anonymous": false,
      "inputs": [
        {
          "indexed": true,
          "internalType": "address",
          "name": "previousOwner",
          "type": "address"
        },
        {
          "indexed": true,
          "internalType": "address",
          "name": "newOwner",
          "type": "address"
        }
      ],
      "name": "OwnershipTransferred",
      "type": "event"
    },
    {
      "anonymous": false,
      "inputs": [
        {
          "indexed": true,
          "internalType": "address",
          "name": "owner",
          "type": "address"
        },
        {
          "indexed": true,
          "internalType": "address",
          "name": "liquidator",
          "type": "address"
        },
        {
          "indexed": false,
          "internalType": "uint256",
          "name": "collateralAmount",
          "type": "uint256"
        },
        {
          "indexed": false,
          "internalType": "uint256",
          "name": "debtAmount",
          "type": "uint256"
        }
      ],
      "name": "VaultLiquidated",
      "type": "event"
    },
    {
      "inputs": [],
      "name": "COLLATERAL_RATIO",
      "outputs": [
        {
          "internalType": "uint256",
          "name": "",
          "type": "uint256"
        }
      ],
      "stateMutability": "view",
      "type": "function",
      "constant": true
    },
    {
      "inputs": [],
      "name": "LIQUIDATION_PENALTY",
      "outputs": [
        {
          "internalType": "uint256",
          "name": "",
          "type": "uint256"
        }
      ],
      "stateMutability": "view",
      "type": "function",
      "constant": true
    },
    {
      "inputs": [],
      "name": "LIQUIDATION_THRESHOLD",
      "outputs": [
        {
          "internalType": "uint256",
          "name": "",
          "type": "uint256"
        }
      ],
      "stateMutability": "view",
      "type": "function",
      "constant": true
    },
    {
      "inputs": [],
      "name": "PRECISION",
      "outputs": [
        {
          "internalType": "uint256",
          "name": "",
          "type": "uint256"
        }
      ],
      "stateMutability": "view",
      "type": "function",
      "constant": true
    },
    {
      "inputs": [],
      "name": "oracle",
      "outputs": [
        {
          "internalType": "contract PriceOracle",
          "name": "",
          "type": "address"
        }
      ],
      "stateMutability": "view",
      "type": "function",
      "constant": true
    },
    {
      "inputs": [],
      "name": "owner",
      "outputs": [
        {
          "internalType": "address",
          "name": "",
          "type": "address"
        }
      ],
      "stateMutability": "view",
      "type": "function",
      "constant": true
    },
    {
      "inputs": [],
      "name": "renounceOwnership",
      "outputs": [],
      "stateMutability": "nonpayable",
      "type": "function"
    },
    {
      "inputs": [],
      "name": "totalBadDebt",
      "outputs": [
        {
          "internalType": "uint256",
          "name": "",
          "type": "uint256"
        }
      ],
      "stateMutability": "view",
      "type": "function",
      "constant": true
    },
    {
      "inputs": [],
      "name": "totalCollateral",
      "outputs": [
        {
          "internalType": "uint256",
          "name": "",
          "type": "uint256"
        }
      ],
      "stateMutability": "view",
      "type": "function",
      "constant": true
    },
    {
      "inputs": [],
      "name": "totalDebt",
      "outputs": [
        {
          "internalType": "uint256",
          "name": "",
          "type": "uint256"
        }
      ],
      "stateMutability": "view",
      "type": "function",
      "constant": true
    },
    {
      "inputs": [
        {
          "internalType": "address",
          "name": "newOwner",
          "type": "address"
        }
      ],
      "name": "transferOwnership",
      "outputs": [],
      "stateMutability": "nonpayable",
      "type": "function"
    },
    {
      "inputs": [
        {
          "internalType": "address",
          "name": "",
          "type": "address"
        }
      ],
      "name": "vaults",
      "outputs": [
        {
          "internalType": "uint256",
          "name": "collateralAmount",
          "type": "uint256"
        },
        {
          "internalType": "uint256",
          "name": "debtAmount",
          "type": "uint256"
        },
        {
          "internalType": "bool",
          "name": "isBadDebt",
          "type": "bool"
        }
      ],
      "stateMutability": "view",
      "type": "function",
      "constant": true
    },
    {
      "inputs": [],
      "name": "zetaCoin",
      "outputs": [
        {
          "internalType": "contract ZetaCoin",
          "name": "",
          "type": "address"
        }
      ],
      "stateMutability": "view",
      "type": "function",
      "constant": true
    },
    {
      "stateMutability": "payable",
      "type": "receive",
      "payable": true
    },
    {
      "inputs": [
        {
          "internalType": "address",
          "name": "_zetaCoin",
          "type": "address"
        }
      ],
      "name": "setZetaCoin",
      "outputs": [],
      "stateMutability": "nonpayable",
      "type": "function"
    },
    {
      "inputs": [
        {
          "internalType": "address",
          "name": "_oracle",
          "type": "address"
        }
      ],
      "name": "setOracle",
      "outputs": [],
      "stateMutability": "nonpayable",
      "type": "function"
    },
    {
      "inputs": [],
      "name": "deposit",
      "outputs": [],
      "stateMutability": "payable",
      "type": "function",
      "payable": true
    },
    {
      "inputs": [
        {
          "internalType": "uint256",
          "name": "amount",
          "type": "uint256"
        }
      ],
      "name": "withdraw",
      "outputs": [],
      "stateMutability": "nonpayable",
      "type": "function"
    },
    {
      "inputs": [
        {
          "internalType": "uint256",
          "name": "amount",
          "type": "uint256"
        }
      ],
      "name": "borrowZeta",
      "outputs": [],
      "stateMutability": "nonpayable",
      "type": "function"
    },
    {
      "inputs": [
        {
          "internalType": "address",
          "name": "owner",
          "type": "address"
        }
      ],
      "name": "maxBrrowableZeta",
      "outputs": [
        {
          "internalType": "uint256",
          "name": "",
          "type": "uint256"
        }
      ],
      "stateMutability": "view",
      "type": "function",
      "constant": true
    },
    {
      "inputs": [
        {
          "internalType": "uint256",
          "name": "amount",
          "type": "uint256"
        }
      ],
      "name": "repayZeta",
      "outputs": [],
      "stateMutability": "nonpayable",
      "type": "function"
    },
    {
      "inputs": [
        {
          "internalType": "address",
          "name": "vaultOwner",
          "type": "address"
        }
      ],
      "name": "liquidate",
      "outputs": [],
      "stateMutability": "nonpayable",
      "type": "function"
    },
    {
      "inputs": [
        {
          "internalType": "uint256",
          "name": "collateralAmount",
          "type": "uint256"
        },
        {
          "internalType": "uint256",
          "name": "debtAmount",
          "type": "uint256"
        }
      ],
      "name": "isValidCollateralization",
      "outputs": [
        {
          "internalType": "bool",
          "name": "",
          "type": "bool"
        }
      ],
      "stateMutability": "view",
      "type": "function",
      "constant": true
    },
    {
      "inputs": [
        {
          "internalType": "address",
          "name": "vaultOwner",
          "type": "address"
        }
      ],
      "name": "isLiquidatable",
      "outputs": [
        {
          "internalType": "bool",
          "name": "",
          "type": "bool"
        }
      ],
      "stateMutability": "view",
      "type": "function",
      "constant": true
    },
    {
      "inputs": [
        {
          "internalType": "address",
          "name": "owner",
          "type": "address"
        }
      ],
      "name": "getVaultInfo",
      "outputs": [
        {
          "internalType": "uint256",
          "name": "collateralAmountOfVault",
          "type": "uint256"
        },
        {
          "internalType": "uint256",
          "name": "debtAmountOfVault",
          "type": "uint256"
        },
        {
          "internalType": "bool",
          "name": "isLiquidatableOrNot",
          "type": "bool"
        },
        {
          "internalType": "uint256",
          "name": "availableToBorrow",
          "type": "uint256"
        }
      ],
      "stateMutability": "view",
      "type": "function",
      "constant": true
    },
    {
      "inputs": [],
      "name": "getVaultsInfo",
      "outputs": [
        {
          "internalType": "uint256",
          "name": "totalCollateralAmount",
          "type": "uint256"
        },
        {
          "internalType": "uint256",
          "name": "totalDebtAmount",
          "type": "uint256"
        },
        {
          "internalType": "uint256",
          "name": "totalBadDebtAmount",
          "type": "uint256"
        }
      ],
      "stateMutability": "view",
      "type": "function",
      "constant": true
    }
  ],
  "bytecode": "0x608060405234801562000010575f80fd5b506040516200180e3803806200180e833981016040819052620000339162000106565b33806200005957604051631e4fbdf760e01b81525f600482015260240160405180910390fd5b62000064816200009b565b5060018055600280546001600160a01b039384166001600160a01b031991821617909155600380549290931691161790556200013c565b5f80546001600160a01b038381166001600160a01b0319831681178455604051919092169283917f8be0079c531659141344cd1fd0a4f28419497f9722a3daafe3b4186f6b6457e09190a35050565b80516001600160a01b038116811462000101575f80fd5b919050565b5f806040838503121562000118575f80fd5b6200012383620000ea565b91506200013360208401620000ea565b90509250929050565b6116c4806200014a5f395ff3fe608060405260043610610164575f3560e01c806387b68211116100cd578063a622ee7c11610087578063d9e69a0511610062578063d9e69a051461044f578063f2fde38b14610463578063f3dcfe6114610482578063fc7b9c18146104a1575f80fd5b8063a622ee7c146103d9578063aaf5eb6814610433578063d0e30db014610447575f80fd5b806387b68211146103125780638da5cb5b146103315780638de622431461034d57806390229af71461036c57806390a8ae9b146103b15780639b8621d5146103c5575f80fd5b80636b7087881161011e5780636b7087881461023a578063715018a61461026a5780637adbf9731461027e5780637dc0d1d01461029d578063800010c2146102d4578063805a4231146102f3575f80fd5b8063042e02cf1461016f5780630792e61e146101a35780632e1a7d4d146101c45780632f865568146101e35780634986bd50146102025780634ac8eb5f14610225575f80fd5b3661016b57005b5f80fd5b34801561017a575f80fd5b5061018e610189366004611462565b6104b6565b60405190151581526020015b60405180910390f35b3480156101ae575f80fd5b506101c26101bd36600461148f565b6105c5565b005b3480156101cf575f80fd5b506101c26101de36600461148f565b6107d6565b3480156101ee575f80fd5b506101c26101fd366004611462565b6109bd565b34801561020d575f80fd5b5061021760075481565b60405190815260200161019a565b348015610230575f80fd5b5061021760055481565b348015610245575f80fd5b506005546006546007546040805193845260208401929092529082015260600161019a565b348015610275575f80fd5b506101c2610dd5565b348015610289575f80fd5b506101c2610298366004611462565b610de8565b3480156102a8575f80fd5b506003546102bc906001600160a01b031681565b6040516001600160a01b03909116815260200161019a565b3480156102df575f80fd5b506101c26102ee36600461148f565b610e12565b3480156102fe575f80fd5b5061021761030d366004611462565b610f8c565b34801561031d575f80fd5b506101c261032c366004611462565b61109b565b34801561033c575f80fd5b505f546001600160a01b03166102bc565b348015610358575f80fd5b5061018e6103673660046114a6565b6110c5565b348015610377575f80fd5b5061038b610386366004611462565b61118c565b60408051948552602085019390935290151591830191909152606082015260800161019a565b3480156103bc575f80fd5b50610217607881565b3480156103d0575f80fd5b50610217600a81565b3480156103e4575f80fd5b506104166103f3366004611462565b60046020525f908152604090208054600182015460029092015490919060ff1683565b60408051938452602084019290925215159082015260600161019a565b34801561043e575f80fd5b50610217606481565b6101c26112c0565b34801561045a575f80fd5b50610217609681565b34801561046e575f80fd5b506101c261047d366004611462565b611383565b34801561048d575f80fd5b506002546102bc906001600160a01b031681565b3480156104ac575f80fd5b5061021760065481565b6001600160a01b0381165f908152600460209081526040808320815160608101835281548152600182015493810184905260029091015460ff1615159181019190915290820361050857505f92915050565b60035460408051635054022f60e11b815290515f926001600160a01b03169163a0a8045e9160048083019260209291908290030181865afa15801561054f573d5f803e3d5ffd5b505050506040513d601f19601f8201168201806040525081019061057391906114c6565b90505f6105826012600a6115d1565b835161058f9084906115dc565b61059991906115f3565b90505f6064607885602001516105af91906115dc565b6105b991906115f3565b90911095945050505050565b6105cd6113bd565b335f908152600460205260409020816106015760405162461bcd60e51b81526004016105f890611612565b60405180910390fd5b818160010154101561064b5760405162461bcd60e51b8152602060048201526013602482015272105b5bdd5b9d08195e18d959591cc81919589d606a1b60448201526064016105f8565b81816001015f82825461065e9190611649565b925050819055508160065f8282546106769190611649565b90915550506002546040516323b872dd60e01b8152336004820152306024820152604481018490526001600160a01b03909116906323b872dd906064016020604051808303815f875af11580156106cf573d5f803e3d5ffd5b505050506040513d601f19601f820116820180604052508101906106f3919061165c565b61073b5760405162461bcd60e51b815260206004820152601960248201527816995d184810dbda5b881d1c985b9cd9995c8819985a5b1959603a1b60448201526064016105f8565b600254604051630852cd8d60e31b8152600481018490526001600160a01b03909116906342966c68906024015f604051808303815f87803b15801561077e575f80fd5b505af1158015610790573d5f803e3d5ffd5b50506040518481523392507fe8b606ac1e5df7657db58d297ca8f41c090fc94c5fd2d6958f043e41736e9fa6915060200160405180910390a2506107d360018055565b50565b6107de6113bd565b335f908152600460205260409020816108095760405162461bcd60e51b81526004016105f890611612565b805482111561085a5760405162461bcd60e51b815260206004820152601760248201527f496e73756666696369656e7420636f6c6c61746572616c00000000000000000060448201526064016105f8565b80545f90610869908490611649565b90506108798183600101546110c5565b6108d55760405162461bcd60e51b815260206004820152602760248201527f5769746864726177616c20776f756c6420627265616b20636f6c6c61746572616044820152666c20726174696f60c81b60648201526084016105f8565b808255600580548491905f906108ec908490611649565b90915550506040515f90339085908381818185875af1925050503d805f8114610930576040519150601f19603f3d011682016040523d82523d5f602084013e610935565b606091505b505090508061097c5760405162461bcd60e51b8152602060048201526013602482015272115512081d1c985b9cd9995c8819985a5b1959606a1b60448201526064016105f8565b60405184815233907f12c7466676da8453fdc8fb091f1a24d31919043a79a50ebe022867a5f5c1ed349060200160405180910390a25050506107d360018055565b6109c56113bd565b6001600160a01b0381165f9081526004602052604090208054610a215760405162461bcd60e51b815260206004820152601460248201527315985d5b1d08191bd95cc81b9bdd08195e1a5cdd60621b60448201526064016105f8565b610a2a826104b6565b610a765760405162461bcd60e51b815260206004820152601960248201527f5661756c74206973206e6f74206c6971756964617461626c650000000000000060448201526064016105f8565b60035460408051635054022f60e11b815290515f926001600160a01b03169163a0a8045e9160048083019260209291908290030181865afa158015610abd573d5f803e3d5ffd5b505050506040513d601f19601f82011682018060405250810190610ae191906114c6565b90505f610af06012600a6115d1565b8354610afd9084906115dc565b610b0791906115f3565b60018401549091505f610b1c6064600a61167b565b610b276064856115dc565b610b3191906115f3565b90505f818311610b415782610b43565b815b905082811015610b5d5760028601805460ff191660011790555b5f6064610b6b600a856115dc565b610b7591906115f3565b90505f86610b856012600a6115d1565b610b8f848761167b565b610b9991906115dc565b610ba391906115f3565b6002546040516323b872dd60e01b8152336004820152306024820152604481018690529192506001600160a01b0316906323b872dd906064016020604051808303815f875af1158015610bf8573d5f803e3d5ffd5b505050506040513d601f19601f82011682018060405250810190610c1c919061165c565b610c645760405162461bcd60e51b815260206004820152601960248201527816995d184810dbda5b881d1c985b9cd9995c8819985a5b1959603a1b60448201526064016105f8565b600254604051630852cd8d60e31b8152600481018790526001600160a01b03909116906342966c68906024015f604051808303815f87803b158015610ca7575f80fd5b505af1158015610cb9573d5f803e3d5ffd5b50506040515f925033915083908381818185875af1925050503d805f8114610cfc576040519150601f19603f3d011682016040523d82523d5f602084013e610d01565b606091505b5050905080610d485760405162461bcd60e51b8152602060048201526013602482015272115512081d1c985b9cd9995c8819985a5b1959606a1b60448201526064016105f8565b81895f015f828254610d5a9190611649565b925050819055508560065f828254610d729190611649565b90915550505f60018a0155604080518381526020810188905233916001600160a01b038d16917f5c02ddf6410d0c87dcaa4b9b77dc87db69df052bb913b9a046283fdec5d69a21910160405180910390a35050505050505050506107d360018055565b610ddd6113e7565b610de65f611413565b565b610df06113e7565b600380546001600160a01b0319166001600160a01b0392909216919091179055565b610e1a6113bd565b5f8111610e395760405162461bcd60e51b81526004016105f890611612565b335f9081526004602052604090208054610e875760405162461bcd60e51b815260206004820152600f60248201526e4e6f207661756c742065786973747360881b60448201526064016105f8565b5f828260010154610e98919061167b565b9050610ea7825f0154826110c5565b610f035760405162461bcd60e51b815260206004820152602760248201527f576f756c6420657863656564206d6178696d756d20626f72726f77696e6720636044820152666170616369747960c81b60648201526084016105f8565b8082600101819055508260065f828254610f1d919061167b565b90915550506002546040516340c10f1960e01b8152336004820152602481018590526001600160a01b03909116906340c10f19906044015f604051808303815f87803b158015610f6b575f80fd5b505af1158015610f7d573d5f803e3d5ffd5b5050505050506107d360018055565b6001600160a01b038082165f90815260046020818152604080842081516060810183528154815260018201548185015260029091015460ff161515818301526003548251635054022f60e11b81529251959691958795919092169363a0a8045e93808301939192908290030181865afa15801561100b573d5f803e3d5ffd5b505050506040513d601f19601f8201168201806040525081019061102f91906114c6565b90505f61103e6012600a6115d1565b835161104b9084906115dc565b61105591906115f3565b90505f60966110656064846115dc565b61106f91906115f3565b905083602001518111611082575f611091565b60208401516110919082611649565b9695505050505050565b6110a36113e7565b600280546001600160a01b0319166001600160a01b0392909216919091179055565b5f815f036110d557506001611186565b60035460408051635054022f60e11b815290515f926001600160a01b03169163a0a8045e9160048083019260209291908290030181865afa15801561111c573d5f803e3d5ffd5b505050506040513d601f19601f8201168201806040525081019061114091906114c6565b90505f61114f6012600a6115d1565b61115983876115dc565b61116391906115f3565b90505f60646111736096876115dc565b61117d91906115f3565b90911015925050505b92915050565b6001600160a01b038082165f90815260046020818152604080842081516060810183528154815260018201548185015260029091015460ff161515818301526003548251635054022f60e11b81529251959687968796879694958795949093169363a0a8045e93808301939192908290030181865afa158015611211573d5f803e3d5ffd5b505050506040513d601f19601f8201168201806040525081019061123591906114c6565b90505f6112446012600a6115d1565b83516112519084906115dc565b61125b91906115f3565b90505f609661126b6064846115dc565b61127591906115f3565b90505f84602001518211611289575f611298565b60208501516112989083611649565b9050845f015185602001516112ac8c6104b6565b919a50985096509450505050509193509193565b6112c86113bd565b5f341161130a5760405162461bcd60e51b815260206004820152601060248201526f09aeae6e840c8cae0dee6d2e8408aa8960831b60448201526064016105f8565b335f908152600460205260408120805434929061132890849061167b565b925050819055503460055f828254611340919061167b565b909155505060405134815233907f7dba1be544024070cd5eebfa8bdd80a8b198cea8058c7d3cc1f8dd36e41ab2f79060200160405180910390a2610de660018055565b61138b6113e7565b6001600160a01b0381166113b457604051631e4fbdf760e01b81525f60048201526024016105f8565b6107d381611413565b6002600154036113e057604051633ee5aeb560e01b815260040160405180910390fd5b6002600155565b5f546001600160a01b03163314610de65760405163118cdaa760e01b81523360048201526024016105f8565b5f80546001600160a01b038381166001600160a01b0319831681178455604051919092169283917f8be0079c531659141344cd1fd0a4f28419497f9722a3daafe3b4186f6b6457e09190a35050565b5f60208284031215611472575f80fd5b81356001600160a01b0381168114611488575f80fd5b9392505050565b5f6020828403121561149f575f80fd5b5035919050565b5f80604083850312156114b7575f80fd5b50508035926020909101359150565b5f602082840312156114d6575f80fd5b5051919050565b634e487b7160e01b5f52601160045260245ffd5b600181815b8085111561152b57815f1904821115611511576115116114dd565b8085161561151e57918102915b93841c93908002906114f6565b509250929050565b5f8261154157506001611186565b8161154d57505f611186565b8160018114611563576002811461156d57611589565b6001915050611186565b60ff84111561157e5761157e6114dd565b50506001821b611186565b5060208310610133831016604e8410600b84101617156115ac575081810a611186565b6115b683836114f1565b805f19048211156115c9576115c96114dd565b029392505050565b5f6114888383611533565b8082028115828204841417611186576111866114dd565b5f8261160d57634e487b7160e01b5f52601260045260245ffd5b500490565b6020808252601d908201527f416d6f756e74206d7573742062652067726561746572207468616e2030000000604082015260600190565b81810381811115611186576111866114dd565b5f6020828403121561166c575f80fd5b81518015158114611488575f80fd5b80820180821115611186576111866114dd56fea26469706673582212209578a15c005b5c8c50ccbe7c418242e2a118d9aaf2f05ad4dc31dc1827253aed64736f6c63430008140033",
  "immutableReferences": {},
  "source": "// SPDX-License-Identifier: MIT\r\npragma solidity ^0.8.20;\r\n\r\nimport \"@openzeppelin/contracts/utils/ReentrancyGuard.sol\";\r\nimport \"@openzeppelin/contracts/access/Ownable.sol\";\r\nimport \"./ZetaCoin.sol\";\r\nimport \"./Oracle.sol\";\r\n\r\ncontract Vault is Ownable, ReentrancyGuard {\r\n    ZetaCoin public zetaCoin;\r\n    PriceOracle public oracle;\r\n    uint constant DECIMAL_COUNT = 18;\r\n    uint constant DECIMAL_PRECISION = 10 ** DECIMAL_COUNT; // 10^18\r\n\r\n    uint256 public constant COLLATERAL_RATIO = 150; // 150% collateralization ratio\r\n    uint256 public constant LIQUIDATION_THRESHOLD = 120; // 120% liquidation threshold\r\n    uint256 public constant LIQUIDATION_PENALTY = 10; // 10% penalty\r\n    uint256 public constant PRECISION = 100;\r\n\r\n    struct VaultPosition {\r\n        uint256 collateralAmount; // ETH amount in Wei\r\n        uint256 debtAmount; // ZETA amount\r\n        bool isBadDebt; // bad debt flag\r\n    }\r\n\r\n    mapping(address => VaultPosition) public vaults;\r\n    uint256 public totalCollateral;\r\n    uint256 public totalDebt;\r\n    uint256 public totalBadDebt;\r\n\r\n    event CollateralAdded(address indexed owner, uint256 amount);\r\n    event CollateralRemoved(address indexed owner, uint256 amount);\r\n    event DebtRepaid(address indexed owner, uint256 amount);\r\n    event VaultLiquidated(\r\n        address indexed owner,\r\n        address indexed liquidator,\r\n        uint256 collateralAmount,\r\n        uint256 debtAmount\r\n    );\r\n\r\n    constructor(address _zetaCoin, address _oracle) Ownable(msg.sender) {\r\n        zetaCoin = ZetaCoin(_zetaCoin);\r\n        oracle = PriceOracle(_oracle);\r\n    }\r\n\r\n    function setZetaCoin(address _zetaCoin) external onlyOwner {\r\n        zetaCoin = ZetaCoin(_zetaCoin);\r\n    }\r\n\r\n    function setOracle(address _oracle) external onlyOwner {\r\n        oracle = PriceOracle(_oracle);\r\n    }\r\n\r\n    // deposit ETH into the vault\r\n    function deposit() external payable nonReentrant {\r\n        require(msg.value > 0, \"Must deposit ETH\");\r\n\r\n        vaults[msg.sender].collateralAmount += msg.value;\r\n        totalCollateral += msg.value;\r\n\r\n        emit CollateralAdded(msg.sender, msg.value);\r\n    }\r\n\r\n    function withdraw(uint256 amount) external nonReentrant {\r\n        VaultPosition storage vault = vaults[msg.sender];\r\n        require(amount > 0, \"Amount must be greater than 0\");\r\n        require(vault.collateralAmount >= amount, \"Insufficient collateral\");\r\n\r\n        uint256 newCollateralAmount = vault.collateralAmount - amount;\r\n        require(\r\n            isValidCollateralization(newCollateralAmount, vault.debtAmount),\r\n            \"Withdrawal would break collateral ratio\"\r\n        );\r\n\r\n        vault.collateralAmount = newCollateralAmount;\r\n        totalCollateral -= amount;\r\n\r\n        (bool success, ) = msg.sender.call{ value: amount }(\"\");\r\n        require(success, \"ETH transfer failed\");\r\n\r\n        emit CollateralRemoved(msg.sender, amount);\r\n    }\r\n\r\n    function borrowZeta(uint256 amount) external nonReentrant {\r\n        require(amount > 0, \"Amount must be greater than 0\");\r\n        VaultPosition storage vault = vaults[msg.sender];\r\n        require(vault.collateralAmount > 0, \"No vault exists\");\r\n\r\n        uint256 newDebtAmount = vault.debtAmount + amount;\r\n        require(\r\n            isValidCollateralization(vault.collateralAmount, newDebtAmount),\r\n            \"Would exceed maximum borrowing capacity\"\r\n        );\r\n        // Mint Zeta Coin to user, and increase the total debt\r\n        vault.debtAmount = newDebtAmount;\r\n        totalDebt += amount;\r\n\r\n        zetaCoin.mint(msg.sender, amount);\r\n    }\r\n\r\n    function maxBrrowableZeta(address owner) public view returns (uint256) {\r\n        VaultPosition memory vault = vaults[owner];\r\n        uint256 ethPrice = oracle.getEthUsdPrice();\r\n        uint256 collateralValue = (vault.collateralAmount * ethPrice) / DECIMAL_PRECISION;\r\n        uint256 maxBorrow = (collateralValue * PRECISION) / COLLATERAL_RATIO;\r\n        return maxBorrow > vault.debtAmount ? maxBorrow - vault.debtAmount : 0;\r\n    }\r\n\r\n    function repayZeta(uint256 amount) external nonReentrant {\r\n        VaultPosition storage vault = vaults[msg.sender];\r\n        require(amount > 0, \"Amount must be greater than 0\");\r\n        require(vault.debtAmount >= amount, \"Amount exceeds debt\");\r\n\r\n        vault.debtAmount -= amount;\r\n        totalDebt -= amount;\r\n\r\n        // Transfer Zeta Coin from user to this contract,\r\n        // and burn the debt\r\n        require(zetaCoin.transferFrom(msg.sender, address(this), amount), \"Zeta Coin transfer failed\");\r\n        zetaCoin.burn(amount);\r\n\r\n        emit DebtRepaid(msg.sender, amount);\r\n    }\r\n\r\n    function liquidate(address vaultOwner) external nonReentrant {\r\n        VaultPosition storage vault = vaults[vaultOwner];\r\n        require(vault.collateralAmount > 0, \"Vault does not exist\");\r\n        require(isLiquidatable(vaultOwner), \"Vault is not liquidatable\");\r\n\r\n        uint256 ethPrice = oracle.getEthUsdPrice();\r\n        uint256 collateralValue = (vault.collateralAmount * ethPrice) / DECIMAL_PRECISION;\r\n        uint256 debtValue = vault.debtAmount;\r\n\r\n        // Calculate the maximum amount of debt that can be repaid,\r\n        // If collateral value is too low, this maybe lower than current debt value\r\n        // So it will become a bad debt after liquidation (still have debt but no collateral assects in this account)\r\n        uint256 maxRepayableDebt = (collateralValue * PRECISION) / (LIQUIDATION_PENALTY + PRECISION);\r\n        uint256 actualRepayDebt = debtValue > maxRepayableDebt ? maxRepayableDebt : debtValue;\r\n        if (actualRepayDebt < debtValue) {\r\n            vault.isBadDebt = true;\r\n        }\r\n\r\n        // Add penalty to the debt, so that the liquidator can get a reward\r\n        // This will encourage more liquidator to liquidate the possible debts\r\n        uint256 penalty = (maxRepayableDebt * LIQUIDATION_PENALTY) / PRECISION;\r\n        uint256 collateralToLiquidator = ((maxRepayableDebt + penalty) * DECIMAL_PRECISION) / ethPrice;\r\n\r\n        // Transfer Zeta Coin from liquidator to this contract,\r\n        // And burn the debt\r\n        require(zetaCoin.transferFrom(msg.sender, address(this), actualRepayDebt), \"Zeta Coin transfer failed\");\r\n        zetaCoin.burn(debtValue);\r\n\r\n        // Transfer collateral to liquidator\r\n        (bool success, ) = msg.sender.call{ value: collateralToLiquidator }(\"\");\r\n        require(success, \"ETH transfer failed\");\r\n        vault.collateralAmount -= collateralToLiquidator;\r\n\r\n        totalDebt -= debtValue;\r\n        vault.debtAmount = 0;\r\n\r\n        emit VaultLiquidated(vaultOwner, msg.sender, collateralToLiquidator, debtValue);\r\n    }\r\n\r\n    function isValidCollateralization(uint256 collateralAmount, uint256 debtAmount) public view returns (bool) {\r\n        if (debtAmount == 0) return true;\r\n        uint256 ethPrice = oracle.getEthUsdPrice();\r\n        uint256 collateralValue = (collateralAmount * ethPrice) / DECIMAL_PRECISION;\r\n        uint256 requiredCollateral = (debtAmount * COLLATERAL_RATIO) / PRECISION;\r\n        return collateralValue >= requiredCollateral;\r\n    }\r\n\r\n    function isLiquidatable(address vaultOwner) public view returns (bool) {\r\n        VaultPosition memory vault = vaults[vaultOwner];\r\n        if (vault.debtAmount == 0) return false;\r\n\r\n        uint256 ethPrice = oracle.getEthUsdPrice();\r\n        uint256 collateralValue = (vault.collateralAmount * ethPrice) / DECIMAL_PRECISION;\r\n        uint256 minimumCollateral = (vault.debtAmount * LIQUIDATION_THRESHOLD) / PRECISION;\r\n        return collateralValue < minimumCollateral;\r\n    }\r\n\r\n    function getVaultInfo(\r\n        address owner\r\n    )\r\n        external\r\n        view\r\n        returns (uint256 collateralAmountOfVault, uint256 debtAmountOfVault, bool isLiquidatableOrNot, uint256 availableToBorrow)\r\n    {\r\n        VaultPosition memory vault = vaults[owner];\r\n        uint256 ethPrice = oracle.getEthUsdPrice();\r\n        uint256 collateralValue = (vault.collateralAmount * ethPrice) / DECIMAL_PRECISION;\r\n        uint256 maxBorrow = (collateralValue * PRECISION) / COLLATERAL_RATIO;\r\n        uint256 availableBorrow = maxBorrow > vault.debtAmount ? maxBorrow - vault.debtAmount : 0;\r\n\r\n        return (vault.collateralAmount, vault.debtAmount, isLiquidatable(owner), availableBorrow);\r\n    }\r\n\r\n    function getVaultsInfo() external view returns (uint256 totalCollateralAmount, uint256 totalDebtAmount, uint256 totalBadDebtAmount) {\r\n        return (totalCollateral, totalDebt, totalBadDebt);\r\n    }\r\n\r\n    receive() external payable {}\r\n}\r\n",
  "sourcePath": "D:\\solidity\\ZetaCoin\\contracts\\Vault.sol",
  "compiler": {
    "name": "solc",
    "version": "0.8.20+commit.a1b79de6.Emscripten.clang"
  },
  "schemaVersion": "3.4.16",
  "updatedAt": "2025-04-20T14:50:59.575Z",
  "networkType": "ethereum",
  "devdoc": {
    "errors": {
      "OwnableInvalidOwner(address)": [
        {
          "details": "The owner is not a valid owner account. (eg. `address(0)`)"
        }
      ],
      "OwnableUnauthorizedAccount(address)": [
        {
          "details": "The caller account is not authorized to perform an operation."
        }
      ],
      "ReentrancyGuardReentrantCall()": [
        {
          "details": "Unauthorized reentrant call."
        }
      ]
    },
    "kind": "dev",
    "methods": {
      "owner()": {
        "details": "Returns the address of the current owner."
      },
      "renounceOwnership()": {
        "details": "Leaves the contract without owner. It will not be possible to call `onlyOwner` functions. Can only be called by the current owner. NOTE: Renouncing ownership will leave the contract without an owner, thereby disabling any functionality that is only available to the owner."
      },
      "transferOwnership(address)": {
        "details": "Transfers ownership of the contract to a new account (`newOwner`). Can only be called by the current owner."
      }
    },
    "version": 1
  },
  "userdoc": {
    "kind": "user",
    "methods": {},
    "version": 1
  }
}