{
  "contractName": "ZetaCoin",
  "abi": [
    {
      "inputs": [],
      "stateMutability": "nonpayable",
      "type": "constructor"
    },
    {
      "inputs": [
        {
          "internalType": "address",
          "name": "spender",
          "type": "address"
        },
        {
          "internalType": "uint256",
          "name": "allowance",
          "type": "uint256"
        },
        {
          "internalType": "uint256",
          "name": "needed",
          "type": "uint256"
        }
      ],
      "name": "ERC20InsufficientAllowance",
      "type": "error"
    },
    {
      "inputs": [
        {
          "internalType": "address",
          "name": "sender",
          "type": "address"
        },
        {
          "internalType": "uint256",
          "name": "balance",
          "type": "uint256"
        },
        {
          "internalType": "uint256",
          "name": "needed",
          "type": "uint256"
        }
      ],
      "name": "ERC20InsufficientBalance",
      "type": "error"
    },
    {
      "inputs": [
        {
          "internalType": "address",
          "name": "approver",
          "type": "address"
        }
      ],
      "name": "ERC20InvalidApprover",
      "type": "error"
    },
    {
      "inputs": [
        {
          "internalType": "address",
          "name": "receiver",
          "type": "address"
        }
      ],
      "name": "ERC20InvalidReceiver",
      "type": "error"
    },
    {
      "inputs": [
        {
          "internalType": "address",
          "name": "sender",
          "type": "address"
        }
      ],
      "name": "ERC20InvalidSender",
      "type": "error"
    },
    {
      "inputs": [
        {
          "internalType": "address",
          "name": "spender",
          "type": "address"
        }
      ],
      "name": "ERC20InvalidSpender",
      "type": "error"
    },
    {
      "inputs": [
        {
          "internalType": "address",
          "name": "owner",
          "type": "address"
        }
      ],
      "name": "OwnableInvalidOwner",
      "type": "error"
    },
    {
      "inputs": [
        {
          "internalType": "address",
          "name": "account",
          "type": "address"
        }
      ],
      "name": "OwnableUnauthorizedAccount",
      "type": "error"
    },
    {
      "anonymous": false,
      "inputs": [
        {
          "indexed": true,
          "internalType": "address",
          "name": "owner",
          "type": "address"
        },
        {
          "indexed": true,
          "internalType": "address",
          "name": "spender",
          "type": "address"
        },
        {
          "indexed": false,
          "internalType": "uint256",
          "name": "value",
          "type": "uint256"
        }
      ],
      "name": "Approval",
      "type": "event"
    },
    {
      "anonymous": false,
      "inputs": [
        {
          "indexed": true,
          "internalType": "address",
          "name": "previousOwner",
          "type": "address"
        },
        {
          "indexed": true,
          "internalType": "address",
          "name": "newOwner",
          "type": "address"
        }
      ],
      "name": "OwnershipTransferred",
      "type": "event"
    },
    {
      "anonymous": false,
      "inputs": [
        {
          "indexed": true,
          "internalType": "address",
          "name": "from",
          "type": "address"
        },
        {
          "indexed": true,
          "internalType": "address",
          "name": "to",
          "type": "address"
        },
        {
          "indexed": false,
          "internalType": "uint256",
          "name": "value",
          "type": "uint256"
        }
      ],
      "name": "Transfer",
      "type": "event"
    },
    {
      "inputs": [],
      "name": "MAX_SUPPLY",
      "outputs": [
        {
          "internalType": "uint256",
          "name": "",
          "type": "uint256"
        }
      ],
      "stateMutability": "view",
      "type": "function",
      "constant": true
    },
    {
      "inputs": [
        {
          "internalType": "address",
          "name": "owner",
          "type": "address"
        },
        {
          "internalType": "address",
          "name": "spender",
          "type": "address"
        }
      ],
      "name": "allowance",
      "outputs": [
        {
          "internalType": "uint256",
          "name": "",
          "type": "uint256"
        }
      ],
      "stateMutability": "view",
      "type": "function",
      "constant": true
    },
    {
      "inputs": [
        {
          "internalType": "address",
          "name": "spender",
          "type": "address"
        },
        {
          "internalType": "uint256",
          "name": "value",
          "type": "uint256"
        }
      ],
      "name": "approve",
      "outputs": [
        {
          "internalType": "bool",
          "name": "",
          "type": "bool"
        }
      ],
      "stateMutability": "nonpayable",
      "type": "function"
    },
    {
      "inputs": [
        {
          "internalType": "address",
          "name": "account",
          "type": "address"
        }
      ],
      "name": "balanceOf",
      "outputs": [
        {
          "internalType": "uint256",
          "name": "",
          "type": "uint256"
        }
      ],
      "stateMutability": "view",
      "type": "function",
      "constant": true
    },
    {
      "inputs": [],
      "name": "decimals",
      "outputs": [
        {
          "internalType": "uint8",
          "name": "",
          "type": "uint8"
        }
      ],
      "stateMutability": "view",
      "type": "function",
      "constant": true
    },
    {
      "inputs": [],
      "name": "name",
      "outputs": [
        {
          "internalType": "string",
          "name": "",
          "type": "string"
        }
      ],
      "stateMutability": "view",
      "type": "function",
      "constant": true
    },
    {
      "inputs": [],
      "name": "owner",
      "outputs": [
        {
          "internalType": "address",
          "name": "",
          "type": "address"
        }
      ],
      "stateMutability": "view",
      "type": "function",
      "constant": true
    },
    {
      "inputs": [],
      "name": "renounceOwnership",
      "outputs": [],
      "stateMutability": "nonpayable",
      "type": "function"
    },
    {
      "inputs": [],
      "name": "symbol",
      "outputs": [
        {
          "internalType": "string",
          "name": "",
          "type": "string"
        }
      ],
      "stateMutability": "view",
      "type": "function",
      "constant": true
    },
    {
      "inputs": [],
      "name": "totalSupply",
      "outputs": [
        {
          "internalType": "uint256",
          "name": "",
          "type": "uint256"
        }
      ],
      "stateMutability": "view",
      "type": "function",
      "constant": true
    },
    {
      "inputs": [
        {
          "internalType": "address",
          "name": "to",
          "type": "address"
        },
        {
          "internalType": "uint256",
          "name": "value",
          "type": "uint256"
        }
      ],
      "name": "transfer",
      "outputs": [
        {
          "internalType": "bool",
          "name": "",
          "type": "bool"
        }
      ],
      "stateMutability": "nonpayable",
      "type": "function"
    },
    {
      "inputs": [
        {
          "internalType": "address",
          "name": "from",
          "type": "address"
        },
        {
          "internalType": "address",
          "name": "to",
          "type": "address"
        },
        {
          "internalType": "uint256",
          "name": "value",
          "type": "uint256"
        }
      ],
      "name": "transferFrom",
      "outputs": [
        {
          "internalType": "bool",
          "name": "",
          "type": "bool"
        }
      ],
      "stateMutability": "nonpayable",
      "type": "function"
    },
    {
      "inputs": [
        {
          "internalType": "address",
          "name": "newOwner",
          "type": "address"
        }
      ],
      "name": "transferOwnership",
      "outputs": [],
      "stateMutability": "nonpayable",
      "type": "function"
    },
    {
      "inputs": [],
      "name": "vault",
      "outputs": [
        {
          "internalType": "address",
          "name": "",
          "type": "address"
        }
      ],
      "stateMutability": "view",
      "type": "function",
      "constant": true
    },
    {
      "inputs": [
        {
          "internalType": "address",
          "name": "_vault",
          "type": "address"
        }
      ],
      "name": "setVault",
      "outputs": [],
      "stateMutability": "nonpayable",
      "type": "function"
    },
    {
      "inputs": [
        {
          "internalType": "address",
          "name": "to",
          "type": "address"
        },
        {
          "internalType": "uint256",
          "name": "amount",
          "type": "uint256"
        }
      ],
      "name": "mint",
      "outputs": [],
      "stateMutability": "nonpayable",
      "type": "function"
    },
    {
      "inputs": [
        {
          "internalType": "uint256",
          "name": "amount",
          "type": "uint256"
        }
      ],
      "name": "burn",
      "outputs": [],
      "stateMutability": "nonpayable",
      "type": "function"
    }
  ],
  "bytecode": "0x608060405234801562000010575f80fd5b5033604051806040016040528060088152602001672d32ba30a1b7b4b760c11b815250604051806040016040528060048152602001635a45544160e01b8152508160039081620000619190620001a4565b506004620000708282620001a4565b5050506001600160a01b038116620000a157604051631e4fbdf760e01b81525f600482015260240160405180910390fd5b620000ac81620000b3565b506200026c565b600580546001600160a01b038381166001600160a01b0319831681179093556040519116919082907f8be0079c531659141344cd1fd0a4f28419497f9722a3daafe3b4186f6b6457e0905f90a35050565b634e487b7160e01b5f52604160045260245ffd5b600181811c908216806200012d57607f821691505b6020821081036200014c57634e487b7160e01b5f52602260045260245ffd5b50919050565b601f8211156200019f575f81815260208120601f850160051c810160208610156200017a5750805b601f850160051c820191505b818110156200019b5782815560010162000186565b5050505b505050565b81516001600160401b03811115620001c057620001c062000104565b620001d881620001d1845462000118565b8462000152565b602080601f8311600181146200020e575f8415620001f65750858301515b5f19600386901b1c1916600185901b1785556200019b565b5f85815260208120601f198616915b828110156200023e578886015182559484019460019091019084016200021d565b50858210156200025c57878501515f19600388901b60f8161c191681555b5050505050600190811b01905550565b610b57806200027a5f395ff3fe608060405234801561000f575f80fd5b5060043610610106575f3560e01c80636817031b1161009e57806395d89b411161006e57806395d89b4114610222578063a9059cbb1461022a578063dd62ed3e1461023d578063f2fde38b14610275578063fbfa77cf14610288575f80fd5b80636817031b146101ba57806370a08231146101cd578063715018a6146101f55780638da5cb5b146101fd575f80fd5b8063313ce567116100d9578063313ce5671461017057806332cb6b0c1461017f57806340c10f191461019257806342966c68146101a7575f80fd5b806306fdde031461010a578063095ea7b31461012857806318160ddd1461014b57806323b872dd1461015d575b5f80fd5b61011261029b565b60405161011f9190610959565b60405180910390f35b61013b6101363660046109bf565b61032b565b604051901515815260200161011f565b6002545b60405190815260200161011f565b61013b61016b3660046109e7565b610344565b6040516012815260200161011f565b61014f6b033b2e3c9fd0803ce800000081565b6101a56101a03660046109bf565b610367565b005b6101a56101b5366004610a20565b61040c565b6101a56101c8366004610a37565b6104af565b61014f6101db366004610a37565b6001600160a01b03165f9081526020819052604090205490565b6101a5610527565b6005546001600160a01b03165b6040516001600160a01b03909116815260200161011f565b61011261053a565b61013b6102383660046109bf565b610549565b61014f61024b366004610a57565b6001600160a01b039182165f90815260016020908152604080832093909416825291909152205490565b6101a5610283366004610a37565b610556565b60065461020a906001600160a01b031681565b6060600380546102aa90610a88565b80601f01602080910402602001604051908101604052809291908181526020018280546102d690610a88565b80156103215780601f106102f857610100808354040283529160200191610321565b820191905f5260205f20905b81548152906001019060200180831161030457829003601f168201915b5050505050905090565b5f33610338818585610590565b60019150505b92915050565b5f336103518582856105a2565b61035c85858561061e565b506001949350505050565b6006546001600160a01b0316331461039a5760405162461bcd60e51b815260040161039190610ac0565b60405180910390fd5b6b033b2e3c9fd0803ce8000000816103b160025490565b6103bb9190610b02565b11156103fe5760405162461bcd60e51b815260206004820152601260248201527113585e081cdd5c1c1b1e481c995858da195960721b6044820152606401610391565b610408828261067b565b5050565b6006546001600160a01b031633146104365760405162461bcd60e51b815260040161039190610ac0565b6006546001600160a01b03165f908152602081905260409020548111156104965760405162461bcd60e51b8152602060048201526014602482015273496e73756666696369656e742062616c616e636560601b6044820152606401610391565b6006546104ac906001600160a01b0316826106af565b50565b6104b76106e3565b6001600160a01b0381166105055760405162461bcd60e51b8152602060048201526015602482015274496e76616c6964207661756c74206164647265737360581b6044820152606401610391565b600680546001600160a01b0319166001600160a01b0392909216919091179055565b61052f6106e3565b6105385f610710565b565b6060600480546102aa90610a88565b5f3361033881858561061e565b61055e6106e3565b6001600160a01b03811661058757604051631e4fbdf760e01b81525f6004820152602401610391565b6104ac81610710565b61059d8383836001610761565b505050565b6001600160a01b038381165f908152600160209081526040808320938616835292905220545f19811015610618578181101561060a57604051637dc7a0d960e11b81526001600160a01b03841660048201526024810182905260448101839052606401610391565b61061884848484035f610761565b50505050565b6001600160a01b03831661064757604051634b637e8f60e11b81525f6004820152602401610391565b6001600160a01b0382166106705760405163ec442f0560e01b81525f6004820152602401610391565b61059d838383610833565b6001600160a01b0382166106a45760405163ec442f0560e01b81525f6004820152602401610391565b6104085f8383610833565b6001600160a01b0382166106d857604051634b637e8f60e11b81525f6004820152602401610391565b610408825f83610833565b6005546001600160a01b031633146105385760405163118cdaa760e01b8152336004820152602401610391565b600580546001600160a01b038381166001600160a01b0319831681179093556040519116919082907f8be0079c531659141344cd1fd0a4f28419497f9722a3daafe3b4186f6b6457e0905f90a35050565b6001600160a01b03841661078a5760405163e602df0560e01b81525f6004820152602401610391565b6001600160a01b0383166107b357604051634a1406b160e11b81525f6004820152602401610391565b6001600160a01b038085165f908152600160209081526040808320938716835292905220829055801561061857826001600160a01b0316846001600160a01b03167f8c5be1e5ebec7d5bd14f71427d1e84f3dd0314c0f7b2291e5b200ac8c7c3b9258460405161082591815260200190565b60405180910390a350505050565b6001600160a01b03831661085d578060025f8282546108529190610b02565b909155506108cd9050565b6001600160a01b0383165f90815260208190526040902054818110156108af5760405163391434e360e21b81526001600160a01b03851660048201526024810182905260448101839052606401610391565b6001600160a01b0384165f9081526020819052604090209082900390555b6001600160a01b0382166108e957600280548290039055610907565b6001600160a01b0382165f9081526020819052604090208054820190555b816001600160a01b0316836001600160a01b03167fddf252ad1be2c89b69c2b068fc378daa952ba7f163c4a11628f55a4df523b3ef8360405161094c91815260200190565b60405180910390a3505050565b5f6020808352835180828501525f5b8181101561098457858101830151858201604001528201610968565b505f604082860101526040601f19601f8301168501019250505092915050565b80356001600160a01b03811681146109ba575f80fd5b919050565b5f80604083850312156109d0575f80fd5b6109d9836109a4565b946020939093013593505050565b5f805f606084860312156109f9575f80fd5b610a02846109a4565b9250610a10602085016109a4565b9150604084013590509250925092565b5f60208284031215610a30575f80fd5b5035919050565b5f60208284031215610a47575f80fd5b610a50826109a4565b9392505050565b5f8060408385031215610a68575f80fd5b610a71836109a4565b9150610a7f602084016109a4565b90509250929050565b600181811c90821680610a9c57607f821691505b602082108103610aba57634e487b7160e01b5f52602260045260245ffd5b50919050565b60208082526022908201527f4f6e6c79207661756c742063616e20706572666f726d2074686973206163746960408201526137b760f11b606082015260800190565b8082018082111561033e57634e487b7160e01b5f52601160045260245ffdfea2646970667358221220ed02d68cd2300973e72c85e1bd85c3c7a6a64ca760206148156678e70bd2595864736f6c63430008140033",
  "immutableReferences": {},
  "source": "// SPDX-License-Identifier: MIT\r\npragma solidity ^0.8.20;\r\n\r\nimport \"@openzeppelin/contracts/token/ERC20/ERC20.sol\";\r\nimport \"@openzeppelin/contracts/access/Ownable.sol\";\r\n\r\ncontract ZetaCoin is ERC20, Ownable {\r\n    address public vault;\r\n    \r\n    // max supply 1 billion tokens\r\n    uint256 public constant MAX_SUPPLY = 1000000000 * 10 ** 18;\r\n\r\n    modifier onlyVault() {\r\n        require(msg.sender == vault, \"Only vault can perform this action\");\r\n        _;\r\n    }\r\n\r\n    constructor() ERC20(\"ZetaCoin\", \"ZETA\") Ownable(msg.sender) {\r\n\r\n    }\r\n\r\n    function setVault(address _vault) external onlyOwner {\r\n        require(_vault != address(0), \"Invalid vault address\");\r\n        vault = _vault;\r\n    }\r\n\r\n    function mint(address to, uint256 amount) public onlyVault {\r\n        require(totalSupply() + amount <= MAX_SUPPLY, \"Max supply reached\");\r\n        _mint(to, amount);\r\n    }\r\n\r\n    function burn(uint256 amount) public onlyVault {\r\n        require(balanceOf(vault) >= amount, \"Insufficient balance\");\r\n        _burn(vault, amount);\r\n    }\r\n}\r\n\r\n ",
  "sourcePath": "D:\\solidity\\ZetaCoin\\contracts\\ZetaCoin.sol",
  "compiler": {
    "name": "solc",
    "version": "0.8.20+commit.a1b79de6.Emscripten.clang"
  },
  "schemaVersion": "3.4.16",
  "updatedAt": "2025-04-20T14:50:59.550Z",
  "networkType": "ethereum",
  "devdoc": {
    "errors": {
      "ERC20InsufficientAllowance(address,uint256,uint256)": [
        {
          "details": "Indicates a failure with the `spender`s `allowance`. Used in transfers.",
          "params": {
            "allowance": "Amount of tokens a `spender` is allowed to operate with.",
            "needed": "Minimum amount required to perform a transfer.",
            "spender": "Address that may be allowed to operate on tokens without being their owner."
          }
        }
      ],
      "ERC20InsufficientBalance(address,uint256,uint256)": [
        {
          "details": "Indicates an error related to the current `balance` of a `sender`. Used in transfers.",
          "params": {
            "balance": "Current balance for the interacting account.",
            "needed": "Minimum amount required to perform a transfer.",
            "sender": "Address whose tokens are being transferred."
          }
        }
      ],
      "ERC20InvalidApprover(address)": [
        {
          "details": "Indicates a failure with the `approver` of a token to be approved. Used in approvals.",
          "params": {
            "approver": "Address initiating an approval operation."
          }
        }
      ],
      "ERC20InvalidReceiver(address)": [
        {
          "details": "Indicates a failure with the token `receiver`. Used in transfers.",
          "params": {
            "receiver": "Address to which tokens are being transferred."
          }
        }
      ],
      "ERC20InvalidSender(address)": [
        {
          "details": "Indicates a failure with the token `sender`. Used in transfers.",
          "params": {
            "sender": "Address whose tokens are being transferred."
          }
        }
      ],
      "ERC20InvalidSpender(address)": [
        {
          "details": "Indicates a failure with the `spender` to be approved. Used in approvals.",
          "params": {
            "spender": "Address that may be allowed to operate on tokens without being their owner."
          }
        }
      ],
      "OwnableInvalidOwner(address)": [
        {
          "details": "The owner is not a valid owner account. (eg. `address(0)`)"
        }
      ],
      "OwnableUnauthorizedAccount(address)": [
        {
          "details": "The caller account is not authorized to perform an operation."
        }
      ]
    },
    "events": {
      "Approval(address,address,uint256)": {
        "details": "Emitted when the allowance of a `spender` for an `owner` is set by a call to {approve}. `value` is the new allowance."
      },
      "Transfer(address,address,uint256)": {
        "details": "Emitted when `value` tokens are moved from one account (`from`) to another (`to`). Note that `value` may be zero."
      }
    },
    "kind": "dev",
    "methods": {
      "allowance(address,address)": {
        "details": "See {IERC20-allowance}."
      },
      "approve(address,uint256)": {
        "details": "See {IERC20-approve}. NOTE: If `value` is the maximum `uint256`, the allowance is not updated on `transferFrom`. This is semantically equivalent to an infinite approval. Requirements: - `spender` cannot be the zero address."
      },
      "balanceOf(address)": {
        "details": "See {IERC20-balanceOf}."
      },
      "decimals()": {
        "details": "Returns the number of decimals used to get its user representation. For example, if `decimals` equals `2`, a balance of `505` tokens should be displayed to a user as `5.05` (`505 / 10 ** 2`). Tokens usually opt for a value of 18, imitating the relationship between Ether and Wei. This is the default value returned by this function, unless it's overridden. NOTE: This information is only used for _display_ purposes: it in no way affects any of the arithmetic of the contract, including {IERC20-balanceOf} and {IERC20-transfer}."
      },
      "name()": {
        "details": "Returns the name of the token."
      },
      "owner()": {
        "details": "Returns the address of the current owner."
      },
      "renounceOwnership()": {
        "details": "Leaves the contract without owner. It will not be possible to call `onlyOwner` functions. Can only be called by the current owner. NOTE: Renouncing ownership will leave the contract without an owner, thereby disabling any functionality that is only available to the owner."
      },
      "symbol()": {
        "details": "Returns the symbol of the token, usually a shorter version of the name."
      },
      "totalSupply()": {
        "details": "See {IERC20-totalSupply}."
      },
      "transfer(address,uint256)": {
        "details": "See {IERC20-transfer}. Requirements: - `to` cannot be the zero address. - the caller must have a balance of at least `value`."
      },
      "transferFrom(address,address,uint256)": {
        "details": "See {IERC20-transferFrom}. Skips emitting an {Approval} event indicating an allowance update. This is not required by the ERC. See {xref-ERC20-_approve-address-address-uint256-bool-}[_approve]. NOTE: Does not update the allowance if the current allowance is the maximum `uint256`. Requirements: - `from` and `to` cannot be the zero address. - `from` must have a balance of at least `value`. - the caller must have allowance for ``from``'s tokens of at least `value`."
      },
      "transferOwnership(address)": {
        "details": "Transfers ownership of the contract to a new account (`newOwner`). Can only be called by the current owner."
      }
    },
    "version": 1
  },
  "userdoc": {
    "kind": "user",
    "methods": {},
    "version": 1
  }
}